:0200000280007C
:100000000020082031310800590808005B0808006A
:100010005D0808005F080800610808000000000093
:10002000000000000000000000000000630808005D
:10003000650808000000000067080800690808005B
:100040006B0808006D0808006F08080071080800B8
:100050007308080075080800770808007908080088
:100060007B0808007D080800591D0800651D080070
:10007000711D08007F080800810808008308080037
:100080008508080087080800890808008B08080010
:100090008D0808008F0808009108080093080800E0
:1000A0009508080097080800990808009B080800B0
:1000B0009D0808009F080800570808002DE9F04F28
:1000C00080460FF2447095B014461D46D0E90023D7
:1000D000CDE9132303AE00200391B0610DF1340A82
:1000E00000E04C440020ADF8020013AB4FF0FF32AB
:1000F00021460DF1020000F093FB8146B9F1010F9A
:1001000008DA2078B0F1010969EB09096FEA090002
:100110004FEAD079BDF8020025280CBFA9F1010BE8
:10012000CB46BBF1010F0EDB274617F8011B0398E6
:10013000C0470390002800F0D981B069401CB0612D
:10014000BBF1010BF1D1BDF80200252804D100203C
:10015000F0603061706105E00028C2D1B069C7E18C
:1001600040F0010014F8011F2029F9D023290DD0F7
:100170002B2904D02D2906D030290AD00CE040F0DC
:10018000020080B2EEE740F00400FAE740F0080019
:10019000F7E740F01000F4E72A290DD129680A1D7D
:1001A0002A6009683162002904D5494240F0040000
:1001B000316280B2641C13E0002131620BE0316ACD
:1001C0006FF00043994205D001EB810302EB43013C
:1001D00030393162641C2278A2F130010A29EED351
:1001E00021782E2903D04FF0FF31F1611EE014F881
:1001F000011F2A2906D129680A1D2A60641C096882
:10020000F16113E00021F1610BE0F1696FF000434F
:10021000994205D001EB810302EB43013039F161D2
:10022000641C2278A2F130010A29EED3B0840FF2C7
:10023000E050217800F004FB08B114F8010B8DF8B0
:1002400032009DF83200682804BF2078682803D166
:1002500062208DF83200641C0DA8B0602278252A37
:1002600013D0582A3CD0632A00F0AD80642A18BF0E
:10027000692A70D06F2A33D0702A28D0732A09D007
:10028000752A18BF782A2BD0BFE0F068411CF160B6
:100290002521A3E09DF832006C28286813D0011DA9
:1002A00029600068F2697060002A02D500F0F8FA4F
:1002B00007E0002100F026FB00281ABF7168401AF1
:1002C000F0693061ADE0011D2960026896E02868A0
:1002D000011D29607821006802900DA870606EE011
:1002E0009DF832306C2B08BF286811D0712B08BFE5
:1002F000286802D028686A2B0AD1C01D20F00700A8
:100300002860014601F108002860D1E9000102E0FF
:10031000011D296000680290682B02D102A80088A4
:1003200003E0622B02D102A80078029096F8240024
:1003300000073FD5029800283CD042F020007828E2
:1003400038D1F068302100F80A10401C411CF160DF
:1003500000F80A202EE09DF83200622802D06828BA
:1003600006D00BE02868011D296090F9000009E023
:100370002868011D2960B0F9000003E02868011D0C
:10038000296000680290002804D5F068411CF160E3
:100390002D210DE0B08C810704D5F068411CF1607F
:1003A0002B2105E0C00705D5F068411CF160202134
:1003B00000F80A10F0680DA940187060114602A8F4
:1003C00000F0A3F92DE09DF832006C2809D0F06808
:1003D000411CF16029680A1D2A60096800F80A10AA
:1003E0001FE02868011D296001AA0068ADF804001B
:1003F0000020ADF806004FF0FF30F06102A9404642
:1004000000F079F800280CD570E0F068411CF1602C
:10041000252100F80A1022B1F068411CF16000F8B3
:100420000A20306AF168401A7169401A3169A0EBFC
:10043000010996F82400641C40070FD420208DF891
:100440000000002708E0012300AA02A9404600F0AE
:10045000C3F900284AD17F1C4F45F4DBF7680DF142
:10046000340B0AE01BF8011B0398C04703900028D7
:100470003CD0B069401CB0617F1E002FF2D130200B
:100480008DF800004FF0000B776908E0012300AA07
:1004900002A9404600F0A0F940BB0BF1010BBB459F
:1004A000F4DB3769D6F804B009E01BF8011B0398A8
:1004B000C0470390D0B1B069401CB0617F1E002FCF
:1004C000F3D196F8240040077FF50CAE20208DF87C
:1004D000000000E07F1C4F45BFF604AE012300AAD8
:1004E00002A9404600F078F90028F3D04FF0FF3021
:1004F00015B0BDE8F08F2DE9F44F0E4694B0346A84
:100500008146002C48BF6FF0004400F027FA716A62
:10051000401801900FF20030D0E90023CDE902230A
:1005200096F82800400702D40198412805D24020BF
:100530000DF1100A0190002507E000F025FA5FEAAE
:10054000000AF8D1D2E7A4EB0804012CC0F28580A0
:100550001498018802AA0DF1010000F06FFA5FEA19
:10056000000800F188801498008818B9B8F10108D3
:1005700000F18180444570DB3069019908EB00028D
:10058000914258D275624042B169401A7169451A68
:1005900096F8280040070FD420208DF8000000278F
:1005A00008E0012300AA3146484600F015F900286A
:1005B00061D17F1CAF42F4DB336952463146484675
:1005C00000F00AF9002856D130208DF800004FF0D5
:1005D000000BB76909E0012300AA3146484600F044
:1005E000FBF8002847D10BF1010BBB45F3DB776922
:1005F000D6F808B009E01BF8011B7068C8477060A6
:10060000C8B3F069401CF0617F1E002FF3D196F84B
:10061000280040070DD520208DF8000007E00123B9
:1006200000AA3146484600F0D7F820BB7F1CAF42F5
:10063000F5DB00253561424630690DF1010150447A
:1006400000F00AFA3069404430611498801C14901C
:10065000801E008800287FF476AF706A3169401AE6
:10066000B169401A7169A0EB010896F828004007AB
:1006700010D400240CE04FF0FF353EE070682021DC
:10068000C84770600028F6D0F069401CF061641C17
:100690004445F3DB336952463146484600F09CF846
:1006A0000028E8D1B469002709E070683021C84704
:1006B00070600028DFD0F069401CF0617F1CA74209
:1006C000F3DB7369B2683146484600F085F80028CC
:1006D000D1D196F8280040070DD5002409E07068B4
:1006E0002021C84770600028C5D0F069401CF06127
:1006F000641C4445F3DB3561756204A882451CBF68
:10070000504600F0E5F92846F2E6F0B4C2686F29D9
:1007100008BF082405D041F02003782B14BF0A2419
:100720001024066818233746642918BF692902D1A6
:10073000002E48BF7F425FB9056A4DB9082C27D10A
:1007400090F82810090723D530211723D1751FE011
:10075000B7FBF4F604FB167730375D1EFFB22B466D
:100760003A2FA4BFA1F1510C6744AF54370003D016
:1007700085689E18B542EBD3082C09D190F8281053
:10078000090705D5995C302902D05B1E30219954A8
:10079000C3F1180141619A188260026A914208DA35
:1007A000511A81614FF6EF72018D11400185F0BC45
:1007B0007047002A0ED590F8282002F01402102A63
:1007C00008D1426A0369D21A8369D21A531A012BDB
:1007D000A8BF8361F0BC7047F8B504460D461646C5
:1007E0001F46002004E0E869401CE8617F1E0020ED
:1007F00047B116F8011B6868A04768600028F2D16D
:100800004FF0FF30F2BD00000000000000000000CB
:10081000686C747A4C0000000000000000000000CA
:10082000F8B504460D4616461F4600F091F93B46C2
:1008300032462946204601B0BDE8F04000F09FB99D
:100840000278C9B28A421AB11CBF10F8012FF9E729
:1008500018BF00207047FEE7FEE7FEE7FEE7FEE771
:10086000FEE7FEE7FEE7FEE7FEE7FEE7FEE7FEE760
:10087000FEE7FEE7FEE7FEE7FEE7FEE7FEE7FEE750
:10088000FEE7FEE7FEE7FEE7FEE7FEE7FEE7FEE740
:10089000FEE7FEE7FEE7FEE7FEE7FEE7FEE7FEE730
:1008A00000F10103810704D010F8011B89B1810711
:1008B000FAD10268B2F10131914311F0803F04BFD7
:1008C00050F8042FF6E710F8011B11B110F8011BC6
:1008D000FBE7C01A704710B450F8041B81B10268DE
:1008E0001218001D50F8043BDC0744BFA9F10104B5
:1008F000E31852F8044B43F8044B091FF9D1EBE716
:1009000010BC7047C9B2830706D0521E22D310F81C
:10091000013B9942F7D11FE0083A13D302F10402D8
:1009200041EA012141EA014150F8043B121F21BF75
:100930004B40A3F1013C2CEA030C1CF0803FF3D0A8
:10094000C9B2001F083210F8013B521E28BF91EABD
:10095000030FF8D818BF0120401E704780B500F083
:10096000F7F8012002BD50F8041B61B150F8042BC8
:10097000D30744BFA9F101039A18002342F8043BAE
:10098000091FFAD1EFE7704770B5054605F10F0072
:10099000C408E400C046C046A54232D2082C04D2A6
:1009A000082402E0083000F093F8234802681100A0
:1009B0000CD1011D0A6802B31368A34238BF111D90
:1009C000F8D310E01D68A5420DD2191D0B68002B4D
:1009D000F8D11268011D00E0191D0B6893420CD07C
:1009E0001D68A542F8D361B10D682A68A2F1080319
:1009F000A3420AD26A680A6010E000F0E3F8002817
:100A0000D0D1C046C046002070BD63190B60121BD8
:100A10000E686B6873600B681A602C6009680029A7
:100A20001DBF4A68002A091D00210160C046C0465A
:100A300005F1080070BD0000EC01002070B504460F
:100A40000D46164600F084F8324629462046BDE899
:100A5000704000F087B8000062B38B0708D0521EC8
:100A600011F8013B00F8013B00F024808B07F6D120
:100A7000830740F0208000BF103A07D330B4B1E8BC
:100A80003810103AA0E83810F9D230BC530724BF10
:100A9000B1E80810A0E8081044BF51F8043B40F842
:100AA000043BD20724BF31F8022B20F8022B44BFAD
:100AB0000B7803707047083A07D3B1E80810083A7A
:100AC00040F8043B40F804CBF7D25307E4E70000BA
:100AD00000B9704710B5A0F108042068082833D386
:100AE00010F0070F30D1C046C0461848416809B120
:100AF0008C4203D26160446017E019464B680BB129
:100B0000A342FAD30A6853189C421BD3A34204D1D0
:100B100023689A180A600C4607E04A681AB12368ED
:100B20001B199A420ED362604C60616851B1226811
:100B300013198B4206D100230360086880182060D7
:100B400048686060C046C04610BD0000EC0100204F
:100B500080B5DFF80C0000F04BF8806902BD0000A2
:100B60000800002030B430B90FF24800D0E9004549
:100B7000C2E900451BE00170012030BC704730B471
:100B800031B90FF23800D0E90045C3E900450EE065
:100B90001AB930BC6FF00100704708B10A780280C2
:100BA0000978481E804130BCC043C00F7047002008
:100BB00030BC704700000000000000000000000092
:100BC000000000000749086808B100207047064887
:100BD000C008C00008600549C908C900091A0160B9
:100BE000704700BFFC0100200F0200200804002015
:100BF0007047000010B5A0B000A8DFF810148022E4
:100C0000FFF73AFF4FF40C64042100A800F0B5FA96
:100C10000E2000F025FBDFF8F8335FF4E13221000D
:100C2000DFF8F00300F048FB0121DFF8E80300F0F3
:100C300050FB0121DFF8DC0300F054FB20B010BDB5
:100C400080B50C2000F094FBDFF8CC0300F09EFB95
:100C5000DFF8C80300F09AFBDFF8C423DFF8C41301
:100C6000DFF8C40300F092FBDFF8C00300F08EFB56
:100C7000DFF8BC0300F08AFBDFF8B80300F086FB66
:100C8000DFF8B40300F082FBDFF8B00300F07EFB76
:100C9000DFF8AC0300F07AFBDFF8A80300F076FB86
:100CA000DFF8A40300F072FBDFF8A00300F06EFB96
:100CB000DFF89C0300F06AFBDFF8980300F066FBA6
:100CC000DFF8940300F062FBDFF8900300F05EFBB6
:100CD000DFF88C0300F05AFBDFF8880300F056FBC6
:100CE000DFF8840300F052FBDFF8800300F04EFBD6
:100CF00001BD000038B5C74800F01CFB002800F01B
:100D00008181C44800F01AFB0400BFA000F03EFB44
:100D1000E4B22000202800F0C880302840D03128DC
:100D200067D032287BD0352800F08F80362800F03D
:100D30009880372800F0A180382800F0AA80462843
:100D400000F0C780482800F0EE804C2800F0D680E4
:100D50004D2800F0F780502800F01581522800F04F
:100D60003081532800F01581542800F04581662811
:100D700000F0AF80682800F0D6806C2800F0BE80BC
:100D80006D2800F0DF80702800F0FD80722800F0F0
:100D90001881732800F0FD80742800F02D8131E166
:100DA000012000F041FB5FF48030B1490860B14898
:100DB00000F0ECFA012000F037FB5FF48030AE4920
:100DC0000860AE48006800880500AC4800684580AF
:100DD000AA48006880880500A8480068C088050007
:100DE000A648006800890500A448006840890500FD
:100DF000D6E700F0BBFC0500680706D5002000F030
:100E000007FC9F4800F0C2FA05E0012000F000FC5A
:100E10009C4800F0BBFA0A2000F006FBF2E000F06C
:100E2000A5FC0500280706D5002000F004FC964824
:100E300000F0ACFA05E0012000F0FDFB934800F063
:100E4000A5FA0A2000F0F0FADCE0002200210120DF
:100E500000F01BFC8E4800F099FA0A2000F0E4FA3A
:100E6000D0E000220021002000F00FFC894800F0B3
:100E70008DFA0A2000F0D8FAC4E0002200210120F7
:100E800000F024FC844800F081FA0A2000F0CCFA3B
:100E9000B8E000220021002000F018FC7F4800F09C
:100EA00075FA0A2000F0C0FAACE07D4800F06EFA56
:100EB00000F05CFC80B201007A4800F067FA554807
:100EC00000F038FA0028FAD0524800F037FA04004F
:100ED00098E075480088002806D0002072490880F4
:100EE000724800F053FA05E001206F49088070480D
:100EF00000F04CFA0A2000F097FA83E000F0ACFA18
:100F000000F0E3FA00F01AFB00F04EFB644800F03A
:100F10003DFA404800F00EFA0028FAD03D4800F0B3
:100F20000DFA04006EE0FFF78BFE5D4800F02EFA2C
:100F3000384800F0FFF90028FAD0364800F0FEF9F2
:100F400004005FE000F0FAFB0500ADB2402D0DD1CA
:100F50005FF4803046490860ADB22900554800F082
:100F600015FA48F2300000F0FAFB0BE05FF4803035
:100F700041490860ADB229004F4800F007FA4F48D8
:100F800000F004FA3EE000F0C2FB0A2000F04CFA48
:100F900038E000F0EBFB0500280405D56D046D0C6E
:100FA000474800F0F3F904E055F40045454800F0E7
:100FB000EDF9280080B200F0D2FB0A2000F034FAEC
:100FC00020E000F0D3FB0500A80406D549F6FE702A
:100FD00005403D4800F0DAF906E045F4C04555F01B
:100FE00001053A4800F0D2F9280080B200F0B7FBC2
:100FF0000A2000F019FA05E000F030FB0A2000F0AA
:1010000013FAFFE731BD00BF0A0D00008823080076
:10101000006CDC0200400940C8290800A42A08002E
:1010200000310800F4300800A02C0800002A080055
:10103000102508005828080098280800C026080035
:1010400004270800482708008C27080058250800B6
:10105000D0270800C42C0800382A0800A025080062
:10106000C0240800D8280800E8250800C02E080081
:1010700034100E401429080030100E40443108008E
:101080006C2D0800DC2E08008C2D0800F82E0800BE
:10109000602B0800882B0800B02B0800D82B080014
:1010A000D42A0800A42F08000002002044300800C1
:1010B00058300800342B0800502908006C30080014
:1010C00094300800A4300800B43008000C31080047
:1010D00030B44164D2B2002A01D0416600E001661A
:1010E000046F2300046F33EA01052C40046741605C
:1010F00030BC704710B44164D2B2002A01D04166BE
:1011000000E00166046F230053EA010404674160B4
:1011100010BC7047C0F88410CB43C0F880309304F3
:101120009B0CC0F88C3070474164D2B2002A01D0C9
:10113000416600E00166DBB2002B01D0016200E0F5
:10114000416241610160704710B4019C4164E4B2A6
:10115000002C01D0416600E00166DBB2002B01D01B
:10116000016500E04165D2B2002A01D0016300E0D0
:1011700041630161016010BC704738B504000D0087
:10118000002D52D0607A002806D0022814D00BD34C
:1011900004282ED02DD343E0A07A10F0010221685C
:1011A0006068FFF795FF3DE0A07A10F0010221682A
:1011B0006068FFF79FFF35E0012094F90810884030
:1011C0001B490860A07AC0F3400010F00103A07A28
:1011D00010F0010221686068FFF7A6FFA07A80077F
:1011E00006D5E0698204920CA1696068FFF792FF5E
:1011F00018E0A07A10F00100A17AC1F3800111F08B
:101200000103617A042901D1012200E00022C0B269
:101210000090DBB2D2B221686068FFF795FF01E071
:10122000002003E020346D1EAAE7012032BD00003B
:1012300010040E400100487A032802D0487A04289E
:1012400003D14868806B020002E04868C06B02006E
:101250000868024201D1002000E001207047000030
:1012600010B50400202C08D30D4800F08FF866223A
:101270000C490D4800F08AF8FEE70C48006801218F
:10128000A14008400121A140884204D12100084822
:1012900000F07CF803E00120A0400649086010BD82
:1012A000E43008006C2408002C2E080018040E40BE
:1012B0007826080010040E4010B4AC24046041608D
:1012C0001A4C214203D1B3FBF2F42409046210BC8E
:1012D0007047C9B2002902D04022026001E080229A
:1012E00002607047C9B2002902D01022026001E0FA
:1012F00020220260704734B504000D0000980028D9
:1013000003D1606980050ED4FBE7606980050AD4CB
:101310000098002803D1064800F038F805E000984E
:10132000401E0090F1E7ADB2E56131BD000108005B
:101330004C2E0800406910F0010070474169C90750
:10134000FCD58069C0B2704738B504000D000C4868
:10135000854202D00B48854207D10022210089B284
:101360000948FFF7C8FF200001E05FF0FF3032BD01
:1013700010B5040002492000FFF7E6FF10BD000091
:1013800074000020B4000020004009400EB400B5F5
:1013900082B003A90091024600AB012103487844C2
:1013A0000A30FEF78BFE06BC5DF810FB591C0000EE
:1013B00000B5ADF5097D00A821494FF40872FFF78B
:1013C0005BFB112100A8FFF7D8FE0DF5097D00BDDC
:1013D00010B51620FFF744FF02201A4908605FF09D
:1013E000FF301949086019480068040048F24000BD
:1013F0001749086001201349086010BD48F24302F4
:10140000134B1A6080B240F2771202FB00F2114BCC
:101410001A600E4A1268110005220A4B1A600B4A24
:101420001268D206FBD5704710B50400A4B2002C98
:1014300004D06420FFF7E2FF641EF7E710BD000050
:10144000A01E0800000008402800084020000840B6
:10145000040008401C00084038B500F087F904007B
:1014600054F00204200080B200F079F94FF40040FB
:10147000DFF8CC130860DFF8CC03FFF787FF002507
:10148000ADB2102D11DAADB2DFF8BC03285CDFF885
:10149000BC1309684881ADB2DFF8AC03295CDFF802
:1014A000B003FFF773FF6D1CEAE7AFA0FFF76EFF15
:1014B0004FF6FD700440200080B200F050F94FF468
:1014C0000040DFF89013086031BD30B585B000F002
:1014D0004DF9040054F00204200080B200F03FF9FE
:1014E0004FF40040DFF858130860DFF86C03FFF793
:1014F0004DFF0025ADB2102D0FDADFF85003006864
:101500000088ADB200A96854ADB200A8295CDFF82C
:101510004003FFF73BFF6D1CECE793A0FFF736FF9E
:101520004FF6FD700440200080B200F018F94FF42F
:101530000040DFF82013086005B030BD38B500F07A
:1015400015F9040054F00204200080B200F007F9FD
:101550004FF40040BA49086083A0FFF717FFDFF897
:10156000FC02FFF713FF0025ADB2102D0DDAADB26E
:10157000BB48285CB54909680881ADB2B848295C08
:10158000B348FFF703FF6D1CEEE777A0FFF7FEFE01
:101590004FF6FD700440200080B200F0E0F84FF4F8
:1015A0000040AC49086031BD30B585B000F0DEF8D0
:1015B000040054F00204200080B200F0D0F84FF490
:1015C00000409F490860A748FFF7E0FE0025ADB244
:1015D000102D0DDA9D4800684088ADB200A968540E
:1015E000ADB200A8295C9A48FFF7D0FE6D1CEEE76B
:1015F0005DA0FFF7CBFE4FF6FD700440200080B2E7
:1016000000F0ADF84FF400409249086005B030BDDD
:1016100038B5040000F0AAF80500A4B2002C02D0EE
:1016200055F0040502E04FF6FB700540280080B23B
:1016300000F095F831BD38B5040000F097F80500CA
:10164000A4B2002C02D055F0080502E04FF6F77066
:101650000540280080B200F082F831BD10B500F0DE
:1016600085F80400A00606D54FF6DF7004407E48DA
:10167000FFF78CFE04E054F020047C48FFF786FE60
:10168000200080B200F06BF810BDF8B504000D002A
:10169000160000F06BF80700A4B2002C0ED04FF635
:1016A0007F60074057F04007ADB2002D01D057F4DE
:1016B0000077002E05D057F4806702E04FF6BF7028
:1016C0000740380080B200F04AF8F1BDF8B50400D8
:1016D0000D00160000F04AF80700A4B2002C0ED04E
:1016E0004FF2FF30074057F40077ADB2002D01D024
:1016F00057F48067002E05D057F4006702E04FF6DC
:10170000FF500740380080B200F029F8F1BD10B555
:1017100000F02CF80400E00606D54FF6EF70044008
:101720005348FFF733FE04E054F010045148FFF72C
:101730002DFE200080B200F012F810BD10B501247B
:101740005FF00070434908602000441E0028FBD170
:101750005FF000703A49086000F012F810BD3B4994
:1017600009688880704700000A0D00004FF40041AE
:10177000334A116035490968C988080080B270474A
:101780004FF40041334A116030490968C9880800A4
:10179000C005C00D70472D49096848810021002906
:1017A00001D1491CFBE7010C284A126811817047DE
:1017B00010B5FFF7E5FF0400E00701D5012000E0C8
:1017C000002010BD10B5FFF7DBFF0400200701D596
:1017D000012000E0002010BD4FF400421D4B1A60B4
:1017E0001A4A12681288100080B200434FF4004277
:1017F000134B1A60154A12681288110050EA014012
:1018000070474FF40042134B1A60104A1268528816
:10181000100080B24FF40042094B1A600B4A126864
:101820005288110050EA014070474FF4804004494B
:10183000086070474FF48040064908607047000018
:1018400030100E400C2D0800F40000204431080038
:101850003C31080034100E406C2E08002C2D08007E
:1018600004010020882E08001C30080030300800D9
:10187000A42E08004C2D0800F0B599B011A8A2497B
:101880002022FFF7F9F809A8A0492022FFF7F4F871
:1018900001A89F492022FFF7EFF89E48009044F2EC
:1018A0001130ADF800000020ADF8020021208DF8C5
:1018B000000072B65FF0007097490860012111A81E
:1018C000FFF75BFCFFF774FD00F06EF9FFF780FD9A
:1018D00092489349086000F079F95FF480308E49AE
:1018E00008600320FFF7A0FD5FF480308D49086099
:1018F000FFF780F982A18C48FFF748FD8B4A8C499D
:101900008C48FFF743FDFFF719FF0400A4B2402CF9
:1019100028D15FF4803080490860A4B22100864855
:10192000FFF734FDFFF722FF0500ADB22900834821
:10193000FFF72CFD48F23000FFF711FFFFF775FFAE
:1019400062B60020ADF80200FFF76FFF01208DF8AE
:101950000000FFF775F97A48FFF718FD2820FFF718
:1019600063FD17E05FF480306E490860A4B2210087
:101970007448FFF70BFDFFF7F9FE0500ADB2290033
:101980007148FFF703FD7148FFF700FD7048FFF74E
:10199000FDFCFEE7FFF7F4FE0400A4B221006D4851
:1019A000FFF7F4FCFFF7E2FE0500ADB229006A483C
:1019B000FFF7ECFCA80602D46848FFF7E7FC51A04B
:1019C000FFF7E4FC66480088002814D0FFF7D8FE33
:1019D000000610D4FFF72EFF0098FFF7DCFEBDF8DD
:1019E0000200401CADF802000098C2B200995D48A8
:1019F000FFF7CCFCE6E7FFF718FF594800880028FE
:101A000011D1FFF7BDFE00060DD40098FFF7C3FE0D
:101A10000098C2B200995348FFF7B8FCBDF8020025
:101A2000401CADF802005FF480303B4908600220A2
:101A3000FFF7FAFC5FF480303A4908600120FFF7B5
:101A4000F3FC09A8FFF7F6FB002807D14648FFF78B
:101A50009DFC9DF80000401C8DF8000001A8FFF7D8
:101A6000E9FB002807D14148FFF790FC9DF80000F2
:101A7000401E8DF800003A48008800280CD0FFF77F
:101A800097FE002808D0FFF7A7FE0600F2B231004B
:101A90003748FFF77BFCEEE73148008800280BD180
:101AA000FFF786FE002807D0FFF796FE0600F2B289
:101AB00031002F48FFF76AFC2948008800280CD025
:101AC000FFF780FE002808D0FFF79BFE0700FAB260
:101AD00039002848FFF75AFCEEE721480088002823
:101AE0000BD1FFF76FFE002807D0FFF78AFE070033
:101AF000FAB239001F48FFF749FCFFF7FBF849E746
:101B0000312E30000A0D0000CC2D0800EC2D08000D
:101B10000C2E08000043658734100E40010F00A50D
:101B200008120E4030100E4014280800243108001E
:101B300018310800BC2F0800702A0800142F080074
:101B4000302608008C290800D42F0800082408003B
:101B5000042B0800302F0800EC2F0800803008000C
:101B600000020020002C0800C4300800D430080017
:101B7000282C0800502C080011480068401C10490F
:101B8000086070474168C96C026843681A6402685B
:101B90004368C3F8B02002684368C3F8C0200268F5
:101BA0004368C3F8D020704780B5002000F080F86B
:101BB0000449054800F0B8F80348FFF7E3FF01BD0A
:101BC000F4010020791B0800AC2D080010B5C8B046
:101BD00000A813494FF49072FEF74EFF4FF40070C7
:101BE00010490860092100A8FFF7C7FA5FF002302A
:101BF0000D4908605FF00E300C4908605FF010106E
:101C00000B4908600B48006830F44050040044F46D
:101C1000805050F003000749086048B010BD00BF75
:101C20006822080010040E4070000E4074000E4040
:101C300078000E4080000E40F8B504000D00E86CFE
:101C40000700A86C0740002F23D000200600002FBB
:101C50001FD04A480068864200D3FEE7484850F843
:101C60003600007AA04212D1454850F8360000688C
:101C700007420CD0424850F83600414911EBC601EA
:101C8000496888473E4850F8360000688743761C0C
:101C9000DDE7F1BD80B53B490A20FFF7CDFF3A49AA
:101CA0000B20FFF7C9FF39490C20FFF7C5FF01BD25
:101CB000F8B504000020314908604FF480603449D1
:101CC0000860344805685FF0FF3033490860334AE4
:101CD00021000A2000F09CF80A2000F0CFF84FF411
:101CE00000602B4908602E4806685FF0FF302D49E0
:101CF00008602A4A21000B2000F08AF80B2000F02F
:101D0000BDF84FF4805022490860274807685FF00B
:101D1000FF3026490860214A21000C2000F078F8A5
:101D20000C2000F0ABF8F1BD10B4002800D1FEE7A4
:101D3000124B1B68072B00D3FEE7104B1B68104C9F
:101D400014EBC3031A00106051600C4B1B685B1C42
:101D50000A4C236010BC704780B50A490A20FFF77F
:101D60006BFF01BD80B508490B20FFF765FF01BD82
:101D700080B506490C20FFF75FFF01BDF801002088
:101D8000B4010020000C0E40000E0E4000100E406A
:101D900010040E404C0C0E40440C0E40951C0800E4
:101DA0004C0E0E40440E0E404C100E4044100E409F
:101DB000012110F01F02914040B24209334B43F819
:101DC00022107047012110F01F02914040B24209D9
:101DD0002F4B43F822107047012110F01F02914051
:101DE00040B242092B4B43F82210704710B440B266
:101DF000002808D50A0140B210F00F03264C1B1929
:101E000003F8042C02E040B2244A815410BC70470D
:101E10002DE9F84F04000D0016000427D7F108083B
:101E2000B946C5F307208246E8B28346200040B297
:101E3000FFF7C8FF200040B2FFF7CEFF012010FAE5
:101E400009F0834504D3012010FA09F0401E8346AF
:101E5000012010FA08F0824504D3012010FA08F09E
:101E6000401E82461AFA09F050EA0B0000900099D1
:101E7000200040B2FFF7BAFFBDE8F18F10B50400B3
:101E8000200040B2FFF794FF10BD000000E100E029
:101E900080E100E080E200E018ED00E000E400E016
:101EA00000000200000E0E400B02020000000000C5
:101EB0000000000000000000000000000000000022
:101EC00000000400000E0E400B02020000000000A3
:101ED0000000000000000000000000000000000002
:101EE00002000000000E0E400B0200000000000087
:101EF00000000000000000000000000000000000E2
:101F00000000400000100E400C0200000000000025
:101F100000000000000000000000000000000000C1
:101F200000008000000E0E400C02000000000000C7
:101F300000000000000000000000000000000000A1
:101F400000000001000E0E400C0200000000000026
:101F50000000000000000000000000000000000081
:101F60000000000200100E400C0200000000000003
:101F70000000000000000000000000000000000061
:101F80000000000400100E400C02000000000000E1
:101F90000000000000000000000000000000000041
:101FA0000000000800100E400C02000000000000BD
:101FB0000000000000000000000000000000000021
:101FC0000000001000100E400C0200000000000095
:101FD0000000000000000000000000000000000001
:101FE0000000002000100E400C0200000000000065
:101FF00000000000000000000000000000000000E1
:102000000000004000100E400C0200000000000024
:1020100000000000000000000000000000000000C0
:102020000000008000100E400C02000000000000C4
:1020300000000000000000000000000000000000A0
:102040000040000000100E400C03000000000000E3
:102050000000000000000000000000000000000080
:102060000080000000100E400C0300000000000083
:102070000000000000000000000000000000000060
:102080000000010000100E400C03000000000000E2
:102090000000000000000000000000000000000040
:1020A0000000000200100E400C04000000000000C0
:1020B0000000000000000000000000000000000020
:1020C00010B500244FF44070574908604FF4007079
:1020D000564908604FF4004055490860554800686B
:1020E00000060DD4544855490860002004005148AA
:1020F0000068000604D42000441C10F1010FF6D142
:102100004F480068C0010DD44E484D49086000207A
:1021100004004D480068C00704D42000441C10F19E
:10212000010FF6D14948464908600020040046489E
:102130000068C00304D42000441C10F1010FF6D144
:1021400043480068C008C00050F0010040490860E2
:10215000002004003C480068000704D42000441C10
:1021600010F1010FF6D13B483B4908600020040004
:1021700035480068800704D42000441C10F1010F8A
:10218000F6D13648006850F4441034490860002005
:1021900004002D480068400604D42000441C10F1BF
:1021A000010FF6D111202A490860002004002648BA
:1021B0000068000704D42000441C10F1010FF6D180
:1021C000122023490860002004001F48006800070F
:1021D00004D42000441C10F1010FF6D14FF480709C
:1021E0001F490860012000F001F810BD1D49C0B270
:1021F00001280CD10A6C52F4C0220A644A6C52F4D1
:10220000C0224A64CA6C52F40032CA640BE00A6C01
:1022100032F440320A644A6C32F440324A64CA6C86
:1022200032F44032CA64704700080E40000A0E4083
:1022300054120E4024120E40080000A510120E4049
:1022400020040E40093F370068040E40093F370163
:1022500030040E40013F072028040E401C040E40AD
:1022600010040E4000020E4000FE01FE000E0E4063
:102270000B00000000000000000000000000000053
:10228000000000000000000040000000000E0E40B2
:102290000B01000000000000000000000000000032
:1022A000000000000000000000001000000E0E40C2
:1022B0000B00010000000000000000000000000012
:1022C000000000000000000000000800000E0E40AA
:1022D0000B000100000000000000000000000000F2
:1022E000000000000000000000008000000E0E4012
:1022F0000B000100000000000000000000000000D2
:1023000000000000000000000000040000100E406B
:102310000C000100000000000000000000000000B0
:102320000000000000000000FF0F300000100E4011
:102330000C00010000000000000000000000000090
:10234000000000000000000000010000000E0E4030
:102350000B01010000000000000000000000000070
:10236000000000000000000080000000000E0E4091
:102370000B01010000000000000000000000000050
:10238000000000000000000000002000000C0E40D3
:102390000A00000000000000000000000000000033
:1023A000000000000000000000001000000C0E40C3
:1023B0000A00000000000000000000000000000013
:1023C000000000000000000000008000000C0E4033
:1023D0000A010000000000000000000000000000F2
:1023E000000000000000000000004000000C0E4053
:1023F0000A010000000000000000000000000000D2
:10240000000000000000000020436865636B206648
:102410006F72202B31305620616E64202D31305682
:1024200020636F6E6E6563746564206F6E207468E0
:102430006520626F6172642E0A0D202B31305620A8
:10244000656E61626C657320746865203556207016
:102450006F77657220737570706C7920666F72206B
:1024600074686520383538322E0A0D00433A5C55C1
:10247000736572735C6A756C696F5C446F63756DCC
:10248000656E74735C49415220456D626564646594
:102490006420576F726B62656E63685C41746D6532
:1024A0006C5C617439316C69625C7065726970680A
:1024B0006572616C735C706D635C706D632E63003C
:1024C00050726573732073206F72205320746F20D5
:1024D000546F67676C65207468652048492D3835EE
:1024E00038322F3833206265747765656E20536308
:1024F00072616D706C6520616E6420556E2D736322
:1025000072616D626C65206D6F64650A0D0000007C
:1025100050726573732D3020746F20456E74657230
:102520002048617264776172652054657374206D10
:102530006F64652C2050756C7365203734564331B9
:102540003338206465636F646572206F75747075CD
:1025500074730A0D000000005072657373206620CA
:102560006F72204620746F20546F67676C6520621D
:1025700065747765656E204649464F20456D7074D9
:102580007920616E64204649464F2046756C6C2068
:1025900064656D6F6E7374726174696F6E0A0D009D
:1025A00050726573732070206F72205020746F20FA
:1025B000546F67676C65205472616E736D697474D3
:1025C0006572204152494E43206269743332206261
:1025D00065747765656E2064617461206F72205048
:1025E00061726974790A0D005072657373207420EA
:1025F0006F72205420746F20546F67676C6520627F
:1026000065747765656E2053656C662D54657374CB
:10261000204D6F646520616E64204E6F726D616C39
:10262000204F7065726174696F6E0A0D00000000C2
:102630000A0D50726F6772616D2077696C6C206251
:102640006567696E20696E2034207365636F6E6400
:10265000732C205072657373204820746F2073654B
:10266000652074686973206D656E752061676169A6
:102670006E2E0A0D000000002D492D20504D435FA5
:10268000456E61626C655065726970686572616CF7
:102690003A20636C6F636B206F662070657269709F
:1026A000686572616C20257520697320616C7265A4
:1026B00061647920656E61626C65640A0D000000DA
:1026C00050726573732D3520746F20456E61626C96
:1026D00065202052656365697665722D3120456EEF
:1026E000636F6465722064617461393D3020616E8E
:1026F00064206461746131303D3020626974730A12
:102700000D00000050726573732D3620746F2044E5
:10271000697361626C652052656365697665722DC7
:102720003120456E636F6465722064617461393D68
:102730003020616E64206461746131303D3020620C
:102740006974730A0D00000050726573732D372091
:10275000746F20456E61626C652020526563656907
:102760007665722D3220456E636F646572206461F8
:102770007461393D3020616E642064617461313070
:102780003D3020626974730A0D0000005072657359
:10279000732D3820746F2044697361626C65205218
:1027A000656365697665722D3220456E636F646579
:1027B000722064617461393D3020616E642064610F
:1027C000746131303D3020626974730A0D0000007D
:1027D0005072657373206C206F72204C20746F20D0
:1027E0006C6F616420616E64207265616420626157
:1027F000636B203136206C6162656C73206F6E20D4
:102800005265632D3120616E64205265632D320A5A
:102810000D0000000A0A0A0A0A0A0D20486F6C74AB
:1028200020496E74656772617465642043697263E0
:10283000756974732048492D383538322F3835384A
:10284000332044656D6F20426F617264205665725B
:102850003A2025730A0D000050726573732D3120E4
:10286000746F20546F67676C6520456E61626C659C
:102870002F44697361626C65205265636569766592
:10288000722D31206C6162656C207265636F676EBA
:102890006974696F6E0A0D0050726573732D322072
:1028A000746F20546F67676C6520456E61626C655C
:1028B0002F44697361626C65205265636569766552
:1028C000722D32206C6162656C207265636F676E79
:1028D0006974696F6E0A0D005072657373207220FF
:1028E0006F72205220746F20546F67676C6520628E
:1028F00065747765656E20484947482053504545C3
:102900004420616E64204C4F572053504545440A83
:102910000D00000054657374696E67204368697028
:102920002053656C6563747320616E6420746F67F7
:10293000676C696E67204C454420696E20656E6443
:102940006C657373206C6F6F702E2E2E2E0A0D0027
:102950002A2A2A2050617274204E6F7420446574B4
:1029600065637465642C20537461747573205265BB
:102970006720496E76616C6964203D3078252E347D
:1029800058202A2A2A0A0A0D000000002A2A2A2092
:1029900050617274204E6F74204465746563746571
:1029A000642C205374617475732052656720496EDE
:1029B00076616C6964203D3078252E3458202A2AAF
:1029C0002A0A0A0D000000000A0D2A2A2A2A2A2AA9
:1029D0002A2A2A2A2A2A2A2A2A2A2A2A2A2A2A2A57
:1029E0002A2A2A2A2A2A2A2A2A2A2A2A2A2A2A2A47
:1029F0002A2A2A2A2A2A2A2A2A2A2A0A0D000000F2
:102A00002A2A2A2A2A2A2A2A2A2A2A2A2A2A2A2A26
:102A10002A2A2A2A2A2A2A2A2A2A2A2A2A2A2A2A16
:102A20002A2A2A2A2A2A2A2A2A2A2A2A2A2A2A2A06
:102A30002A0A0A0D000000005072657373206D2091
:102A40006F72204D20746F206170706C792061204E
:102A50004D522070756C736520746F20746865200A
:102A600048492D383538322F38330A0D0000000020
:102A70002A2A2A2050617274204465746563746543
:102A800064202A2A2A0A0D537461747573205265D2
:102A9000672056616C6964203D3078252E34580AD1
:102AA0000D000000202020486F6C7420496E746572
:102AB0006772617465642043697263756974732019
:102AC00048492D383538322F48492D383538330AA2
:102AD0000D0000000A0D50726F6772616D20506129
:102AE000757365642C20707265737320616E792034
:102AF0006B657920746F20636F6E74696E75650AFB
:102B00000D0000002053686F756C642062652030F2
:102B100078303034302E2054727920616761696ECC
:102B200020616E64207072657373205265736574E2
:102B30000000000050617274204465746563746520
:102B4000642C20537461747573205265672056613C
:102B50006C6964203D3078252E34580A0A0D000037
:102B60005265636569766572203120456E636F64D6
:102B700065722062697473392F313020656E61622D
:102B80006C65640A0D0000005265636569766572C4
:102B9000203120456E636F646572206269747339F9
:102BA0002F31302064697361626C65640A0D000026
:102BB0005265636569766572203220456E636F6485
:102BC00065722062697473392F313020656E6162DD
:102BD0006C65640A0D000000526563656976657274
:102BE000203220456E636F646572206269747339A8
:102BF0002F31302064697361626C65640A0D0000D6
:102C00005472616E736D69747465723A2020307805
:102C1000252E385820204C6162656C3A203078258A
:102C20002E32580A0D0000005265636569766572A0
:102C30002D31203A20203078252E385820204C6124
:102C400062656C3A203078252E32580A0D0000005B
:102C500052656365697665722D32203A202030789E
:102C6000252E385820204C6162656C3A203078253A
:102C70002E32580A0D00000010B50749794418316A
:102C8000064C7C44163404E00A68081D5118884735
:102C90000146A142F8D110BD5000000070000000B4
:102CA0002020202020202020436F6D70696C6564F7
:102CB0003A20257320257320202020202020200A60
:102CC0000D00000050726573732068206F722048F9
:102CD00020746F20446973706C6179207468697323
:102CE000204D656E750A0D007FDCFFFFF0000000CF
:102CF0001401002000000000DFDBFFFF14010000D2
:102D000048040000000000200000000052656365D8
:102D1000697665722D31204C6162656C73204C6F51
:102D2000616465643A200A0D000000005265636525
:102D3000697665722D32204C6162656C73204C6F30
:102D4000616465643A200A0D000000005472616EEF
:102D5000736D6974746572206269743332206173B3
:102D6000205061726974790A0D0000005265636534
:102D7000697665722031206C6162656C73204469EC
:102D80007361626C65640A0D000000005265636542
:102D9000697665722032206C6162656C73204469CB
:102DA0007361626C65640A0D00000000020000009F
:102DB000000E0E400B0200000000000000000000AA
:102DC0000000000000000000000000000000000201
:102DD00000100E400C040000000000000000000085
:102DE00000000000000000000000000000000200E1
:102DF000000E0E400B020200000000000000000068
:102E000000000000000000000000000000000400BE
:102E1000000E0E400B020200000000000000000047
:102E200000000000000000000000000053616E6917
:102E3000747920636865636B206661696C656420E2
:102E400061742025733A25640A0D00002D452D205C
:102E500055534152545F57726974653A2054696DF5
:102E60006564206F75742E0A0D000000526563655D
:102E7000697665722D31204C6162656C73205265F4
:102E800061643A200A0D00005265636569766572D7
:102E90002D32204C6162656C7320526561643A206A
:102EA0000A0D00005472616E736D6974746572204E
:102EB000626974333220617320446174610A0D00C9
:102EC0005072657373205350414345204241522054
:102ED000746F2050617573650A0D0000526563655B
:102EE000697665722031206C6162656C7320456E75
:102EF00061626C65640A0D0052656365697665728E
:102F00002032206C6162656C7320456E61626C6575
:102F1000640A0D00436F6E74726F6C20576F726499
:102F2000203D203078252E34580A0A0D000000007C
:102F30000A0D53746174757320526567203D20201B
:102F40003078252E345820202000000000F00CF8A6
:102F5000002801D0FFF790FE0020C046C046FEF7D3
:102F60008BFC00F00DF8000010B5034CFFF7A8F83B
:102F700002480460012010BD0000080008ED00E0D8
:102F800000F000B80746384600F002F8FBE7000002
:102F900080B5C046C046024A11001820ABBEFBE710
:102FA00026000200436F6E74726F6C20576F72645C
:102FB0003A203078252E34580A0D000020436F6DDA
:102FC00070696C65643A20257320257320202020C9
:102FD0000A0A0D00436F6E74726F6C20576F726433
:102FE000203D203078252E34580A0D0020436F6E86
:102FF00074726F6C20576F7264203D203078252EDC
:103000003458000038B504460D462846FEF7B0F99E
:10301000A84218BF0024204632BD000053656C66EC
:103020002D54657374204D6F64650A0D0000000017
:103030004E6F726D616C204F7065726174696F6E56
:103040000A0D00004649464F20454D505459204432
:10305000656D6F0A0D0000004649464F2046554CED
:103060004C2044656D6F0A0D000000002053686F0E
:10307000756C64206265203078303034302E20004A
:1030800020202053656C662D54657374204D6F6449
:1030900065000000536372616D626C6564200A0D07
:1030A00000000000556E2D736372616D626C656483
:1030B000200A0D00484947482053504545440A0D11
:1030C0000000000053573120707265737365640A05
:1030D0000D00000053573220707265737365640AE7
:1030E0000D0000002D462D204153534552543A20E7
:1030F000000000004A756E20323220323031370035
:1031000031313A32363A3030000000004C4F57200F
:1031100053504545440A0D004A756E203232203224
:103120003031370031313A32363A30310000000068
:10313000C046C046C046C046FFF708FF3078252E7F
:103140003258200000000060000000000000000075
:10315000000000000000000000000000000000006F
:10316000000000000000000000000000000000005F
:10317000000000000000000000000000000000004F
:10318000000000000000000000000000000000003F
:10319000000000000000000000000000000000002F
:1031A000000000000000000000000000000000001F
:1031B0000000000000000000000000000204010107
:1031C00064010020B401002064010020640100209B
:1031D00064010020B10000209800002000000000E1
:1031E00000000000000000000000000000000000DF
:1031F00000000000000000000000000002080202C1
:10320000140100206401002014010020140100209A
:1032100014010020F1000020D80000200000000070
:10322000000000000000000000000000000000009E
:10323000000000000000000000000000010305077E
:103240000911131517192123252729310002040616
:10325000081012141618202224262830FFFFFFFF22
:10326000FFFFFFFFFFFFFFFFFFFFFFFFFFFFFFFF6E
:10327000FFFFFFFFFFFFFFFFFFFFFFFFFFFFFFFF5E
:10328000FFFFFFFFFFFFFFFFFFFFFFFFFFFFFFFF4E
:10329000FFFFFFFFFFFFFFFFFFFFFFFFFFFFFFFF3E
:020000040011E9
:00000001FF
